{
  "contractName": "CryptoPunks",
  "abi": [
    {
      "constant": true,
      "inputs": [],
      "name": "name",
      "outputs": [
        {
          "name": "",
          "type": "string"
        }
      ],
      "payable": false,
      "stateMutability": "view",
      "type": "function"
    },
    {
      "constant": true,
      "inputs": [
        {
          "name": "",
          "type": "uint256"
        }
      ],
      "name": "punksOfferedForSale",
      "outputs": [
        {
          "name": "isForSale",
          "type": "bool"
        },
        {
          "name": "punkIndex",
          "type": "uint256"
        },
        {
          "name": "seller",
          "type": "address"
        },
        {
          "name": "minValue",
          "type": "uint256"
        },
        {
          "name": "onlySellTo",
          "type": "address"
        }
      ],
      "payable": false,
      "stateMutability": "view",
      "type": "function"
    },
    {
      "constant": true,
      "inputs": [],
      "name": "totalSupply",
      "outputs": [
        {
          "name": "",
          "type": "uint256"
        }
      ],
      "payable": false,
      "stateMutability": "view",
      "type": "function"
    },
    {
      "constant": true,
      "inputs": [],
      "name": "decimals",
      "outputs": [
        {
          "name": "",
          "type": "uint8"
        }
      ],
      "payable": false,
      "stateMutability": "view",
      "type": "function"
    },
    {
      "constant": true,
      "inputs": [],
      "name": "imageHash",
      "outputs": [
        {
          "name": "",
          "type": "string"
        }
      ],
      "payable": false,
      "stateMutability": "view",
      "type": "function"
    },
    {
      "constant": true,
      "inputs": [],
      "name": "nextPunkIndexToAssign",
      "outputs": [
        {
          "name": "",
          "type": "uint256"
        }
      ],
      "payable": false,
      "stateMutability": "view",
      "type": "function"
    },
    {
      "constant": true,
      "inputs": [
        {
          "name": "",
          "type": "uint256"
        }
      ],
      "name": "punkIndexToAddress",
      "outputs": [
        {
          "name": "",
          "type": "address"
        }
      ],
      "payable": false,
      "stateMutability": "view",
      "type": "function"
    },
    {
      "constant": true,
      "inputs": [],
      "name": "standard",
      "outputs": [
        {
          "name": "",
          "type": "string"
        }
      ],
      "payable": false,
      "stateMutability": "view",
      "type": "function"
    },
    {
      "constant": true,
      "inputs": [
        {
          "name": "",
          "type": "address"
        }
      ],
      "name": "balanceOf",
      "outputs": [
        {
          "name": "",
          "type": "uint256"
        }
      ],
      "payable": false,
      "stateMutability": "view",
      "type": "function"
    },
    {
      "constant": true,
      "inputs": [],
      "name": "symbol",
      "outputs": [
        {
          "name": "",
          "type": "string"
        }
      ],
      "payable": false,
      "stateMutability": "view",
      "type": "function"
    },
    {
      "constant": true,
      "inputs": [],
      "name": "numberOfPunksToReserve",
      "outputs": [
        {
          "name": "",
          "type": "uint256"
        }
      ],
      "payable": false,
      "stateMutability": "view",
      "type": "function"
    },
    {
      "constant": true,
      "inputs": [],
      "name": "numberOfPunksReserved",
      "outputs": [
        {
          "name": "",
          "type": "uint256"
        }
      ],
      "payable": false,
      "stateMutability": "view",
      "type": "function"
    },
    {
      "constant": true,
      "inputs": [],
      "name": "punksRemainingToAssign",
      "outputs": [
        {
          "name": "",
          "type": "uint256"
        }
      ],
      "payable": false,
      "stateMutability": "view",
      "type": "function"
    },
    {
      "constant": true,
      "inputs": [
        {
          "name": "",
          "type": "address"
        }
      ],
      "name": "pendingWithdrawals",
      "outputs": [
        {
          "name": "",
          "type": "uint256"
        }
      ],
      "payable": false,
      "stateMutability": "view",
      "type": "function"
    },
    {
      "inputs": [],
      "payable": true,
      "stateMutability": "payable",
      "type": "constructor"
    },
    {
      "anonymous": false,
      "inputs": [
        {
          "indexed": true,
          "name": "to",
          "type": "address"
        },
        {
          "indexed": false,
          "name": "punkIndex",
          "type": "uint256"
        }
      ],
      "name": "Assign",
      "type": "event"
    },
    {
      "anonymous": false,
      "inputs": [
        {
          "indexed": true,
          "name": "from",
          "type": "address"
        },
        {
          "indexed": true,
          "name": "to",
          "type": "address"
        },
        {
          "indexed": false,
          "name": "value",
          "type": "uint256"
        }
      ],
      "name": "Transfer",
      "type": "event"
    },
    {
      "anonymous": false,
      "inputs": [
        {
          "indexed": true,
          "name": "from",
          "type": "address"
        },
        {
          "indexed": true,
          "name": "to",
          "type": "address"
        },
        {
          "indexed": false,
          "name": "punkIndex",
          "type": "uint256"
        }
      ],
      "name": "PunkTransfer",
      "type": "event"
    },
    {
      "anonymous": false,
      "inputs": [
        {
          "indexed": true,
          "name": "punkIndex",
          "type": "uint256"
        },
        {
          "indexed": false,
          "name": "minValue",
          "type": "uint256"
        },
        {
          "indexed": true,
          "name": "toAddress",
          "type": "address"
        }
      ],
      "name": "PunkOffered",
      "type": "event"
    },
    {
      "anonymous": false,
      "inputs": [
        {
          "indexed": true,
          "name": "punkIndex",
          "type": "uint256"
        },
        {
          "indexed": false,
          "name": "value",
          "type": "uint256"
        },
        {
          "indexed": true,
          "name": "fromAddress",
          "type": "address"
        },
        {
          "indexed": true,
          "name": "toAddress",
          "type": "address"
        }
      ],
      "name": "PunkBought",
      "type": "event"
    },
    {
      "anonymous": false,
      "inputs": [
        {
          "indexed": true,
          "name": "punkIndex",
          "type": "uint256"
        }
      ],
      "name": "PunkNoLongerForSale",
      "type": "event"
    },
    {
      "constant": false,
      "inputs": [
        {
          "name": "maxForThisRun",
          "type": "uint256"
        }
      ],
      "name": "reservePunksForOwner",
      "outputs": [],
      "payable": false,
      "stateMutability": "nonpayable",
      "type": "function"
    },
    {
      "constant": false,
      "inputs": [
        {
          "name": "punkIndex",
          "type": "uint256"
        }
      ],
      "name": "getPunk",
      "outputs": [],
      "payable": false,
      "stateMutability": "nonpayable",
      "type": "function"
    },
    {
      "constant": false,
      "inputs": [
        {
          "name": "to",
          "type": "address"
        },
        {
          "name": "punkIndex",
          "type": "uint256"
        }
      ],
      "name": "transferPunk",
      "outputs": [],
      "payable": false,
      "stateMutability": "nonpayable",
      "type": "function"
    },
    {
      "constant": false,
      "inputs": [
        {
          "name": "punkIndex",
          "type": "uint256"
        }
      ],
      "name": "punkNoLongerForSale",
      "outputs": [],
      "payable": false,
      "stateMutability": "nonpayable",
      "type": "function"
    },
    {
      "constant": false,
      "inputs": [
        {
          "name": "punkIndex",
          "type": "uint256"
        },
        {
          "name": "minSalePriceInWei",
          "type": "uint256"
        }
      ],
      "name": "offerPunkForSale",
      "outputs": [],
      "payable": false,
      "stateMutability": "nonpayable",
      "type": "function"
    },
    {
      "constant": false,
      "inputs": [
        {
          "name": "punkIndex",
          "type": "uint256"
        },
        {
          "name": "minSalePriceInWei",
          "type": "uint256"
        },
        {
          "name": "toAddress",
          "type": "address"
        }
      ],
      "name": "offerPunkForSaleToAddress",
      "outputs": [],
      "payable": false,
      "stateMutability": "nonpayable",
      "type": "function"
    },
    {
      "constant": false,
      "inputs": [
        {
          "name": "punkIndex",
          "type": "uint256"
        }
      ],
      "name": "buyPunk",
      "outputs": [],
      "payable": true,
      "stateMutability": "payable",
      "type": "function"
    },
    {
      "constant": false,
      "inputs": [],
      "name": "withdraw",
      "outputs": [],
      "payable": false,
      "stateMutability": "nonpayable",
      "type": "function"
    }
  ],
  "bytecode": "0x6080604052606060405190810160405280604081526020017f616333396166343739333131396565343662626666333531643863623662356681526020017f32336461363032323231323661646434323638653236313139396132393231628152506000908051906020019062000078929190620001f0565b506040805190810160405280600b81526020017f43727970746f50756e6b7300000000000000000000000000000000000000000081525060029080519060200190620000c6929190620001f0565b50600060075560006008556000600a5533600160006101000a81548173ffffffffffffffffffffffffffffffffffffffff021916908373ffffffffffffffffffffffffffffffffffffffff1602179055506127106006819055506006546008819055506103e86009819055506040805190810160405280600b81526020017f43525950544f50554e4b53000000000000000000000000000000000000000000815250600390805190602001906200017f929190620001f0565b506040805190810160405280600281526020017fcfbe00000000000000000000000000000000000000000000000000000000000081525060049080519060200190620001cd929190620001f0565b506000600560006101000a81548160ff021916908360ff1602179055506200029f565b828054600181600116156101000203166002900490600052602060002090601f016020900481019282601f106200023357805160ff191683800117855562000264565b8280016001018555821562000264579182015b828111156200026357825182559160200191906001019062000246565b5b50905062000273919062000277565b5090565b6200029c91905b80821115620002985760008160009055506001016200027e565b5090565b90565b611b8580620002af6000396000f300608060405260043610610128576000357c0100000000000000000000000000000000000000000000000000000000900463ffffffff16806306fdde031461012d57806308573a0b146101bd578063088f11f3146101ea57806318160ddd146102a3578063313ce567146102ce5780633ccfd60b146102ff57806351605d801461031657806352f29a25146103a657806358178168146103d15780635a3b7e421461043e57806370a08231146104ce5780638264fe98146105255780638b72a2ec1461054557806395d89b4114610592578063a4ddf31214610622578063aec4e0bb1461064d578063bf31196f14610678578063c0d6ce63146106cf578063c44193c3146106fa578063c81d1d5b14610731578063f3f437031461075e578063f6eeff1e146107b5575b600080fd5b34801561013957600080fd5b506101426107e2565b6040518080602001828103825283818151815260200191508051906020019080838360005b83811015610182578082015181840152602081019050610167565b50505050905090810190601f1680156101af5780820380516001836020036101000a031916815260200191505b509250505060405180910390f35b3480156101c957600080fd5b506101e860048036038101908080359060200190929190505050610880565b005b3480156101f657600080fd5b5061021560048036038101908080359060200190929190505050610a40565b60405180861515151581526020018581526020018473ffffffffffffffffffffffffffffffffffffffff1673ffffffffffffffffffffffffffffffffffffffff1681526020018381526020018273ffffffffffffffffffffffffffffffffffffffff1673ffffffffffffffffffffffffffffffffffffffff1681526020019550505050505060405180910390f35b3480156102af57600080fd5b506102b8610ac3565b6040518082815260200191505060405180910390f35b3480156102da57600080fd5b506102e3610ac9565b604051808260ff1660ff16815260200191505060405180910390f35b34801561030b57600080fd5b50610314610adc565b005b34801561032257600080fd5b5061032b610baf565b6040518080602001828103825283818151815260200191508051906020019080838360005b8381101561036b578082015181840152602081019050610350565b50505050905090810190601f1680156103985780820380516001836020036101000a031916815260200191505b509250505060405180910390f35b3480156103b257600080fd5b506103bb610c4d565b6040518082815260200191505060405180910390f35b3480156103dd57600080fd5b506103fc60048036038101908080359060200190929190505050610c53565b604051808273ffffffffffffffffffffffffffffffffffffffff1673ffffffffffffffffffffffffffffffffffffffff16815260200191505060405180910390f35b34801561044a57600080fd5b50610453610c86565b6040518080602001828103825283818151815260200191508051906020019080838360005b83811015610493578082015181840152602081019050610478565b50505050905090810190601f1680156104c05780820380516001836020036101000a031916815260200191505b509250505060405180910390f35b3480156104da57600080fd5b5061050f600480360381019080803573ffffffffffffffffffffffffffffffffffffffff169060200190929190505050610d24565b6040518082815260200191505060405180910390f35b61054360048036038101908080359060200190929190505050610d3c565b005b34801561055157600080fd5b50610590600480360381019080803573ffffffffffffffffffffffffffffffffffffffff1690602001909291908035906020019092919050505061115e565b005b34801561059e57600080fd5b506105a761138b565b6040518080602001828103825283818151815260200191508051906020019080838360005b838110156105e75780820151818401526020810190506105cc565b50505050905090810190601f1680156106145780820380516001836020036101000a031916815260200191505b509250505060405180910390f35b34801561062e57600080fd5b50610637611429565b6040518082815260200191505060405180910390f35b34801561065957600080fd5b5061066261142f565b6040518082815260200191505060405180910390f35b34801561068457600080fd5b506106cd6004803603810190808035906020019092919080359060200190929190803573ffffffffffffffffffffffffffffffffffffffff169060200190929190505050611435565b005b3480156106db57600080fd5b506106e4611625565b6040518082815260200191505060405180910390f35b34801561070657600080fd5b5061072f600480360381019080803590602001909291908035906020019092919050505061162b565b005b34801561073d57600080fd5b5061075c60048036038101908080359060200190929190505050611806565b005b34801561076a57600080fd5b5061079f600480360381019080803573ffffffffffffffffffffffffffffffffffffffff169060200190929190505050611973565b6040518082815260200191505060405180910390f35b3480156107c157600080fd5b506107e06004803603810190808035906020019092919050505061198b565b005b60038054600181600116156101000203166002900480601f0160208091040260200160405190810160405280929190818152602001828054600181600116156101000203166002900480156108785780601f1061084d57610100808354040283529160200191610878565b820191906000526020600020905b81548152906001019060200180831161085b57829003601f168201915b505050505081565b6000600160009054906101000a900473ffffffffffffffffffffffffffffffffffffffff1673ffffffffffffffffffffffffffffffffffffffff163373ffffffffffffffffffffffffffffffffffffffff161415156108de57600080fd5b600954600a541015156108f057600080fd5b600090505b600954600a5410801561090757508181105b156109cf5733600b6000600754815260200190815260200160002060006101000a81548173ffffffffffffffffffffffffffffffffffffffff021916908373ffffffffffffffffffffffffffffffffffffffff1602179055503373ffffffffffffffffffffffffffffffffffffffff167f8a0e37b73a0d9c82e205d4d1a3ff3d0b57ce5f4d7bccf6bac03336dc101cb7ba6007546040518082815260200191505060405180910390a280806001019150506007600081548092919060010191905055506108f5565b8060086000828254039250508190555080600a6000828254019250508190555080600c60003373ffffffffffffffffffffffffffffffffffffffff1673ffffffffffffffffffffffffffffffffffffffff168152602001908152602001600020600082825401925050819055505050565b600d6020528060005260406000206000915090508060000160009054906101000a900460ff16908060010154908060020160009054906101000a900473ffffffffffffffffffffffffffffffffffffffff16908060030154908060040160009054906101000a900473ffffffffffffffffffffffffffffffffffffffff16905085565b60065481565b600560009054906101000a900460ff1681565b6000600e60003373ffffffffffffffffffffffffffffffffffffffff1673ffffffffffffffffffffffffffffffffffffffff1681526020019081526020016000205490506000600e60003373ffffffffffffffffffffffffffffffffffffffff1673ffffffffffffffffffffffffffffffffffffffff168152602001908152602001600020819055503373ffffffffffffffffffffffffffffffffffffffff166108fc829081150290604051600060405180830381858888f19350505050158015610bab573d6000803e3d6000fd5b5050565b60008054600181600116156101000203166002900480601f016020809104026020016040519081016040528092919081815260200182805460018160011615610100020316600290048015610c455780601f10610c1a57610100808354040283529160200191610c45565b820191906000526020600020905b815481529060010190602001808311610c2857829003601f168201915b505050505081565b60075481565b600b6020528060005260406000206000915054906101000a900473ffffffffffffffffffffffffffffffffffffffff1681565b60028054600181600116156101000203166002900480601f016020809104026020016040519081016040528092919081815260200182805460018160011615610100020316600290048015610d1c5780601f10610cf157610100808354040283529160200191610d1c565b820191906000526020600020905b815481529060010190602001808311610cff57829003601f168201915b505050505081565b600c6020528060005260406000206000915090505481565b6000600d600083815260200190815260200160002090508060000160009054906101000a900460ff161515610d7057600080fd5b60008160040160009054906101000a900473ffffffffffffffffffffffffffffffffffffffff1673ffffffffffffffffffffffffffffffffffffffff1614158015610e0b57503373ffffffffffffffffffffffffffffffffffffffff168160040160009054906101000a900473ffffffffffffffffffffffffffffffffffffffff1673ffffffffffffffffffffffffffffffffffffffff1614155b15610e1557600080fd5b8060030154341015610e2657600080fd5b600b600083815260200190815260200160002060009054906101000a900473ffffffffffffffffffffffffffffffffffffffff1673ffffffffffffffffffffffffffffffffffffffff168160020160009054906101000a900473ffffffffffffffffffffffffffffffffffffffff1673ffffffffffffffffffffffffffffffffffffffff16141515610eb757600080fd5b33600b600084815260200190815260200160002060006101000a81548173ffffffffffffffffffffffffffffffffffffffff021916908373ffffffffffffffffffffffffffffffffffffffff160217905550600c60008260020160009054906101000a900473ffffffffffffffffffffffffffffffffffffffff1673ffffffffffffffffffffffffffffffffffffffff1673ffffffffffffffffffffffffffffffffffffffff1681526020019081526020016000206000815480929190600190039190505550600c60003373ffffffffffffffffffffffffffffffffffffffff1673ffffffffffffffffffffffffffffffffffffffff168152602001908152602001600020600081548092919060010191905055503373ffffffffffffffffffffffffffffffffffffffff168160020160009054906101000a900473ffffffffffffffffffffffffffffffffffffffff1673ffffffffffffffffffffffffffffffffffffffff167fddf252ad1be2c89b69c2b068fc378daa952ba7f163c4a11628f55a4df523b3ef60016040518082815260200191505060405180910390a361105f8261198b565b34600e60008360020160009054906101000a900473ffffffffffffffffffffffffffffffffffffffff1673ffffffffffffffffffffffffffffffffffffffff1673ffffffffffffffffffffffffffffffffffffffff168152602001908152602001600020600082825401925050819055503373ffffffffffffffffffffffffffffffffffffffff168160020160009054906101000a900473ffffffffffffffffffffffffffffffffffffffff1673ffffffffffffffffffffffffffffffffffffffff16837f58e5d5a525e3b40bc15abaa38b5882678db1ee68befd2f60bafe3a7fd06db9e3346040518082815260200191505060405180910390a45050565b3373ffffffffffffffffffffffffffffffffffffffff16600b600083815260200190815260200160002060009054906101000a900473ffffffffffffffffffffffffffffffffffffffff1673ffffffffffffffffffffffffffffffffffffffff161415156111cb57600080fd5b81600b600083815260200190815260200160002060006101000a81548173ffffffffffffffffffffffffffffffffffffffff021916908373ffffffffffffffffffffffffffffffffffffffff160217905550600c60003373ffffffffffffffffffffffffffffffffffffffff1673ffffffffffffffffffffffffffffffffffffffff1681526020019081526020016000206000815480929190600190039190505550600c60008373ffffffffffffffffffffffffffffffffffffffff1673ffffffffffffffffffffffffffffffffffffffff168152602001908152602001600020600081548092919060010191905055508173ffffffffffffffffffffffffffffffffffffffff163373ffffffffffffffffffffffffffffffffffffffff167fddf252ad1be2c89b69c2b068fc378daa952ba7f163c4a11628f55a4df523b3ef60016040518082815260200191505060405180910390a38173ffffffffffffffffffffffffffffffffffffffff163373ffffffffffffffffffffffffffffffffffffffff167f05af636b70da6819000c49f85b21fa82081c632069bb626f30932034099107d8836040518082815260200191505060405180910390a35050565b60048054600181600116156101000203166002900480601f0160208091040260200160405190810160405280929190818152602001828054600181600116156101000203166002900480156114215780601f106113f657610100808354040283529160200191611421565b820191906000526020600020905b81548152906001019060200180831161140457829003601f168201915b505050505081565b60095481565b600a5481565b3373ffffffffffffffffffffffffffffffffffffffff16600b600085815260200190815260200160002060009054906101000a900473ffffffffffffffffffffffffffffffffffffffff1673ffffffffffffffffffffffffffffffffffffffff161415156114a257600080fd5b60a0604051908101604052806001151581526020018481526020013373ffffffffffffffffffffffffffffffffffffffff1681526020018381526020018273ffffffffffffffffffffffffffffffffffffffff16815250600d600085815260200190815260200160002060008201518160000160006101000a81548160ff0219169083151502179055506020820151816001015560408201518160020160006101000a81548173ffffffffffffffffffffffffffffffffffffffff021916908373ffffffffffffffffffffffffffffffffffffffff1602179055506060820151816003015560808201518160040160006101000a81548173ffffffffffffffffffffffffffffffffffffffff021916908373ffffffffffffffffffffffffffffffffffffffff1602179055509050508073ffffffffffffffffffffffffffffffffffffffff16837f3c7b682d5da98001a9b8cbda6c647d2c63d698a4184fd1d55e2ce7b66f5d21eb846040518082815260200191505060405180910390a3505050565b60085481565b3373ffffffffffffffffffffffffffffffffffffffff16600b600084815260200190815260200160002060009054906101000a900473ffffffffffffffffffffffffffffffffffffffff1673ffffffffffffffffffffffffffffffffffffffff1614151561169857600080fd5b60a0604051908101604052806001151581526020018381526020013373ffffffffffffffffffffffffffffffffffffffff168152602001828152602001600073ffffffffffffffffffffffffffffffffffffffff16815250600d600084815260200190815260200160002060008201518160000160006101000a81548160ff0219169083151502179055506020820151816001015560408201518160020160006101000a81548173ffffffffffffffffffffffffffffffffffffffff021916908373ffffffffffffffffffffffffffffffffffffffff1602179055506060820151816003015560808201518160040160006101000a81548173ffffffffffffffffffffffffffffffffffffffff021916908373ffffffffffffffffffffffffffffffffffffffff1602179055509050506000827f3c7b682d5da98001a9b8cbda6c647d2c63d698a4184fd1d55e2ce7b66f5d21eb836040518082815260200191505060405180910390a35050565b6000600854141561181657600080fd5b6000600b600083815260200190815260200160002060009054906101000a900473ffffffffffffffffffffffffffffffffffffffff1673ffffffffffffffffffffffffffffffffffffffff1614151561186e57600080fd5b33600b600083815260200190815260200160002060006101000a81548173ffffffffffffffffffffffffffffffffffffffff021916908373ffffffffffffffffffffffffffffffffffffffff160217905550600c60003373ffffffffffffffffffffffffffffffffffffffff1673ffffffffffffffffffffffffffffffffffffffff16815260200190815260200160002060008154809291906001019190505550600860008154809291906001900391905055503373ffffffffffffffffffffffffffffffffffffffff167f8a0e37b73a0d9c82e205d4d1a3ff3d0b57ce5f4d7bccf6bac03336dc101cb7ba826040518082815260200191505060405180910390a250565b600e6020528060005260406000206000915090505481565b3373ffffffffffffffffffffffffffffffffffffffff16600b600083815260200190815260200160002060009054906101000a900473ffffffffffffffffffffffffffffffffffffffff1673ffffffffffffffffffffffffffffffffffffffff161415156119f857600080fd5b60a0604051908101604052806000151581526020018281526020013373ffffffffffffffffffffffffffffffffffffffff16815260200160008152602001600073ffffffffffffffffffffffffffffffffffffffff16815250600d600083815260200190815260200160002060008201518160000160006101000a81548160ff0219169083151502179055506020820151816001015560408201518160020160006101000a81548173ffffffffffffffffffffffffffffffffffffffff021916908373ffffffffffffffffffffffffffffffffffffffff1602179055506060820151816003015560808201518160040160006101000a81548173ffffffffffffffffffffffffffffffffffffffff021916908373ffffffffffffffffffffffffffffffffffffffff160217905550905050807fb0e0a660b4e50f26f0b7ce75c24655fc76cc66e3334a54ff410277229fa10bd460405160405180910390a2505600a165627a7a723058209dab89ce8a7bbbfcddefa7d309fcfc9450d3b436fa49c8e2db3e9a2a95014fec0029",
  "source": "/**\n *  copied from https://etherscan.io/address/0x6Ba6f2207e343923BA692e5Cae646Fb0F566DB8D#code\n *\n * Submitted for verification at Etherscan.io on 2017-06-17\n */\n\npragma solidity ^0.4.8;\ncontract CryptoPunks {\n\n    // You can use this hash to verify the image file containing all the punks\n    string public imageHash = \"ac39af4793119ee46bbff351d8cb6b5f23da60222126add4268e261199a2921b\";\n\n    address owner;\n\n    string public standard = 'CryptoPunks';\n    string public name;\n    string public symbol;\n    uint8 public decimals;\n    uint256 public totalSupply;\n\n    uint public nextPunkIndexToAssign = 0;\n\n    //bool public allPunksAssigned = false;\n    uint public punksRemainingToAssign = 0;\n    uint public numberOfPunksToReserve;\n    uint public numberOfPunksReserved = 0;\n\n    //mapping (address => uint) public addressToPunkIndex;\n    mapping (uint => address) public punkIndexToAddress;\n\n    /* This creates an array with all balances */\n    mapping (address => uint256) public balanceOf;\n\n    struct Offer {\n        bool isForSale;\n        uint punkIndex;\n        address seller;\n        uint minValue;          // in ether\n        address onlySellTo;     // specify to sell only to a specific person\n    }\n\n    // A record of punks that are offered for sale at a specific minimum value, and perhaps to a specific person\n    mapping (uint => Offer) public punksOfferedForSale;\n\n    mapping (address => uint) public pendingWithdrawals;\n\n    event Assign(address indexed to, uint256 punkIndex);\n    event Transfer(address indexed from, address indexed to, uint256 value);\n    event PunkTransfer(address indexed from, address indexed to, uint256 punkIndex);\n    event PunkOffered(uint indexed punkIndex, uint minValue, address indexed toAddress);\n    event PunkBought(uint indexed punkIndex, uint value, address indexed fromAddress, address indexed toAddress);\n    event PunkNoLongerForSale(uint indexed punkIndex);\n\n    /* Initializes contract with initial supply tokens to the creator of the contract */\n    function CryptoPunks() payable {\n        //        balanceOf[msg.sender] = initialSupply;              // Give the creator all initial tokens\n        owner = msg.sender;\n        totalSupply = 10000;                        // Update total supply\n        punksRemainingToAssign = totalSupply;\n        numberOfPunksToReserve = 1000;\n        name = \"CRYPTOPUNKS\";                                   // Set the name for display purposes\n        symbol = \"\";                               // Set the symbol for display purposes\n        decimals = 0;                                       // Amount of decimals for display purposes\n    }\n\n    function reservePunksForOwner(uint maxForThisRun) {\n        if (msg.sender != owner) throw;\n        if (numberOfPunksReserved >= numberOfPunksToReserve) throw;\n        uint numberPunksReservedThisRun = 0;\n        while (numberOfPunksReserved < numberOfPunksToReserve && numberPunksReservedThisRun < maxForThisRun) {\n            punkIndexToAddress[nextPunkIndexToAssign] = msg.sender;\n            Assign(msg.sender, nextPunkIndexToAssign);\n            numberPunksReservedThisRun++;\n            nextPunkIndexToAssign++;\n        }\n        punksRemainingToAssign -= numberPunksReservedThisRun;\n        numberOfPunksReserved += numberPunksReservedThisRun;\n        balanceOf[msg.sender] += numberPunksReservedThisRun;\n    }\n\n    function getPunk(uint punkIndex) {\n        if (punksRemainingToAssign == 0) throw;\n        if (punkIndexToAddress[punkIndex] != 0x0) throw;\n        punkIndexToAddress[punkIndex] = msg.sender;\n        balanceOf[msg.sender]++;\n        punksRemainingToAssign--;\n        Assign(msg.sender, punkIndex);\n    }\n\n    // Transfer ownership of a punk to another user without requiring payment\n    function transferPunk(address to, uint punkIndex) {\n        if (punkIndexToAddress[punkIndex] != msg.sender) throw;\n        punkIndexToAddress[punkIndex] = to;\n        balanceOf[msg.sender]--;\n        balanceOf[to]++;\n        Transfer(msg.sender, to, 1);\n        PunkTransfer(msg.sender, to, punkIndex);\n    }\n\n    function punkNoLongerForSale(uint punkIndex) {\n        if (punkIndexToAddress[punkIndex] != msg.sender) throw;\n        punksOfferedForSale[punkIndex] = Offer(false, punkIndex, msg.sender, 0, 0x0);\n        PunkNoLongerForSale(punkIndex);\n    }\n\n    function offerPunkForSale(uint punkIndex, uint minSalePriceInWei) {\n        if (punkIndexToAddress[punkIndex] != msg.sender) throw;\n        punksOfferedForSale[punkIndex] = Offer(true, punkIndex, msg.sender, minSalePriceInWei, 0x0);\n        PunkOffered(punkIndex, minSalePriceInWei, 0x0);\n    }\n\n    function offerPunkForSaleToAddress(uint punkIndex, uint minSalePriceInWei, address toAddress) {\n        if (punkIndexToAddress[punkIndex] != msg.sender) throw;\n        punksOfferedForSale[punkIndex] = Offer(true, punkIndex, msg.sender, minSalePriceInWei, toAddress);\n        PunkOffered(punkIndex, minSalePriceInWei, toAddress);\n    }\n\n    function buyPunk(uint punkIndex) payable {\n        Offer offer = punksOfferedForSale[punkIndex];\n        if (!offer.isForSale) throw;                // punk not actually for sale\n        if (offer.onlySellTo != 0x0 && offer.onlySellTo != msg.sender) throw;  // punk not supposed to be sold to this user\n        if (msg.value < offer.minValue) throw;      // Didn't send enough ETH\n        if (offer.seller != punkIndexToAddress[punkIndex]) throw; // Seller no longer owner of punk\n\n        punkIndexToAddress[punkIndex] = msg.sender;\n        balanceOf[offer.seller]--;\n        balanceOf[msg.sender]++;\n        Transfer(offer.seller, msg.sender, 1);\n\n        punkNoLongerForSale(punkIndex);\n        pendingWithdrawals[offer.seller] += msg.value;\n        PunkBought(punkIndex, msg.value, offer.seller, msg.sender);\n    }\n\n    function withdraw() {\n        uint amount = pendingWithdrawals[msg.sender];\n        // Remember to zero the pending refund before\n        // sending to prevent re-entrancy attacks\n        pendingWithdrawals[msg.sender] = 0;\n        msg.sender.transfer(amount);\n    }\n}\n",
  "sourcePath": "/home/ubuntu/cryptopunks/src/contracts/CryptoPunks.sol",
  "compiler": {
    "name": "solc",
    "version": "0.4.26+commit.4563c3fc.Emscripten.clang"
  },
  "schemaVersion": "3.4.2",
  "updatedAt": "2021-08-12T04:32:06.087Z",
  "networkType": "ethereum",
  "devdoc": {
    "methods": {}
  },
  "userdoc": {
    "methods": {}
  }
}